{
  "contractName": "NFTMarketplace",
  "abi": [
    {
      "anonymous": false,
      "inputs": [
        {
          "indexed": true,
          "internalType": "address",
          "name": "nftContract",
          "type": "address"
        },
        {
          "indexed": true,
          "internalType": "uint256",
          "name": "tokenId",
          "type": "uint256"
        },
        {
          "indexed": false,
          "internalType": "address",
          "name": "buyer",
          "type": "address"
        },
        {
          "indexed": false,
          "internalType": "uint256",
          "name": "price",
          "type": "uint256"
        }
      ],
      "name": "NFTSold",
      "type": "event"
    },
    {
      "inputs": [
        {
          "internalType": "address",
          "name": "nftContract",
          "type": "address"
        },
        {
          "internalType": "uint256",
          "name": "tokenId",
          "type": "uint256"
        },
        {
          "internalType": "address",
          "name": "seller",
          "type": "address"
        },
        {
          "internalType": "uint256",
          "name": "price",
          "type": "uint256"
        }
      ],
      "name": "buyNFT",
      "outputs": [],
      "stateMutability": "payable",
      "type": "function",
      "payable": true
    }
  ],
  "bytecode": "0x608060405234801561000f575f80fd5b506105f58061001d5f395ff3fe60806040526004361061001d575f3560e01c8063f01ade7814610021575b5f80fd5b61003b60048036038101906100369190610341565b61003d565b005b5f811161007f576040517f08c379a0000000000000000000000000000000000000000000000000000000008152600401610076906103ff565b60405180910390fd5b8034146100c1576040517f08c379a00000000000000000000000000000000000000000000000000000000081526004016100b890610467565b60405180910390fd5b5f8490508273ffffffffffffffffffffffffffffffffffffffff168173ffffffffffffffffffffffffffffffffffffffff16636352211e866040518263ffffffff1660e01b81526004016101159190610494565b602060405180830381865afa158015610130573d5f803e3d5ffd5b505050506040513d601f19601f8201168201806040525081019061015491906104c1565b73ffffffffffffffffffffffffffffffffffffffff16146101aa576040517f08c379a00000000000000000000000000000000000000000000000000000000081526004016101a190610536565b60405180910390fd5b8073ffffffffffffffffffffffffffffffffffffffff166342842e0e8433876040518463ffffffff1660e01b81526004016101e793929190610563565b5f604051808303815f87803b1580156101fe575f80fd5b505af1158015610210573d5f803e3d5ffd5b505050508273ffffffffffffffffffffffffffffffffffffffff166108fc3490811502906040515f60405180830381858888f19350505050158015610257573d5f803e3d5ffd5b50838573ffffffffffffffffffffffffffffffffffffffff167f5f56b86d7e7069e97b2fb6f4bbfe88ee51f79e56760d02a0ba2114eb274600f633856040516102a1929190610598565b60405180910390a35050505050565b5f80fd5b5f73ffffffffffffffffffffffffffffffffffffffff82169050919050565b5f6102dd826102b4565b9050919050565b6102ed816102d3565b81146102f7575f80fd5b50565b5f81359050610308816102e4565b92915050565b5f819050919050565b6103208161030e565b811461032a575f80fd5b50565b5f8135905061033b81610317565b92915050565b5f805f8060808587031215610359576103586102b0565b5b5f610366878288016102fa565b94505060206103778782880161032d565b9350506040610388878288016102fa565b92505060606103998782880161032d565b91505092959194509250565b5f82825260208201905092915050565b7f5072696365206d7573742062652067726561746572207468616e207a65726f005f82015250565b5f6103e9601f836103a5565b91506103f4826103b5565b602082019050919050565b5f6020820190508181035f830152610416816103dd565b9050919050565b7f496e636f7272656374207061796d656e7420616d6f756e7400000000000000005f82015250565b5f6104516018836103a5565b915061045c8261041d565b602082019050919050565b5f6020820190508181035f83015261047e81610445565b9050919050565b61048e8161030e565b82525050565b5f6020820190506104a75f830184610485565b92915050565b5f815190506104bb816102e4565b92915050565b5f602082840312156104d6576104d56102b0565b5b5f6104e3848285016104ad565b91505092915050565b7f53656c6c657220646f6573206e6f74206f776e20746865204e465400000000005f82015250565b5f610520601b836103a5565b915061052b826104ec565b602082019050919050565b5f6020820190508181035f83015261054d81610514565b9050919050565b61055d816102d3565b82525050565b5f6060820190506105765f830186610554565b6105836020830185610554565b6105906040830184610485565b949350505050565b5f6040820190506105ab5f830185610554565b6105b86020830184610485565b939250505056fea2646970667358221220625091b29c29becc4211b5fde5025c7135d75521e895917037172939462c7bed64736f6c63430008140033",
  "immutableReferences": {},
  "source": "// SPDX-License-Identifier: MIT\r\npragma solidity ^0.8.0;\r\n\r\nimport \"@openzeppelin/contracts/token/ERC721/IERC721.sol\";\r\n\r\ncontract NFTMarketplace {\r\n    event NFTSold(\r\n        address indexed nftContract,\r\n        uint256 indexed tokenId,\r\n        address buyer,\r\n        uint256 price\r\n    );\r\n\r\n    function buyNFT(\r\n        address nftContract,\r\n        uint256 tokenId,\r\n        address seller,\r\n        uint256 price\r\n    ) external payable {\r\n        require(price > 0, \"Price must be greater than zero\");\r\n        require(msg.value == price, \"Incorrect payment amount\");\r\n\r\n        // NFT\r\n        IERC721 nft = IERC721(nftContract);\r\n        require(nft.ownerOf(tokenId) == seller, \"Seller does not own the NFT\");\r\n\r\n        // NFT\r\n        nft.safeTransferFrom(seller, msg.sender, tokenId);\r\n\r\n        // \r\n        payable(seller).transfer(msg.value);\r\n\r\n        emit NFTSold(nftContract, tokenId, msg.sender, price);\r\n    }\r\n}\r\n",
  "sourcePath": "D:\\Code\\nft-market\\contracts\\market.sol",
  "compiler": {
    "name": "solc",
    "version": "0.8.20+commit.a1b79de6.Emscripten.clang"
  },
  "schemaVersion": "3.4.16",
  "updatedAt": "2024-08-26T20:56:05.931Z",
  "networkType": "ethereum",
  "devdoc": {
    "kind": "dev",
    "methods": {},
    "version": 1
  },
  "userdoc": {
    "kind": "user",
    "methods": {},
    "version": 1
  }
}