{
  "contractName": "NFTMarketplace",
  "abi": [
    {
      "anonymous": false,
      "inputs": [
        {
          "indexed": true,
          "internalType": "address",
          "name": "nftContract",
          "type": "address"
        },
        {
          "indexed": true,
          "internalType": "uint256",
          "name": "tokenId",
          "type": "uint256"
        },
        {
          "indexed": false,
          "internalType": "address",
          "name": "buyer",
          "type": "address"
        },
        {
          "indexed": false,
          "internalType": "uint256",
          "name": "price",
          "type": "uint256"
        }
      ],
      "name": "NFTSold",
      "type": "event"
    },
    {
      "inputs": [
        {
          "internalType": "address",
          "name": "nftContract",
          "type": "address"
        },
        {
          "internalType": "uint256",
          "name": "tokenId",
          "type": "uint256"
        },
        {
          "internalType": "address",
          "name": "seller",
          "type": "address"
        },
        {
          "internalType": "uint256",
          "name": "price",
          "type": "uint256"
        }
      ],
      "name": "buyNFT",
      "outputs": [],
      "stateMutability": "payable",
      "type": "function",
      "payable": true
    }
  ],
  "bytecode": "0x608060405234801561000f575f80fd5b506104508061001d5f395ff3fe60806040526004361061001d575f3560e01c8063f01ade7814610021575b5f80fd5b61003b6004803603810190610036919061025c565b61003d565b005b5f811161007f576040517f08c379a00000000000000000000000000000000000000000000000000000000081526004016100769061031a565b60405180910390fd5b8034146100c1576040517f08c379a00000000000000000000000000000000000000000000000000000000081526004016100b890610382565b60405180910390fd5b5f8490508073ffffffffffffffffffffffffffffffffffffffff166342842e0e8433876040518463ffffffff1660e01b8152600401610102939291906103be565b5f604051808303815f87803b158015610119575f80fd5b505af115801561012b573d5f803e3d5ffd5b505050508273ffffffffffffffffffffffffffffffffffffffff166108fc3490811502906040515f60405180830381858888f19350505050158015610172573d5f803e3d5ffd5b50838573ffffffffffffffffffffffffffffffffffffffff167f5f56b86d7e7069e97b2fb6f4bbfe88ee51f79e56760d02a0ba2114eb274600f633856040516101bc9291906103f3565b60405180910390a35050505050565b5f80fd5b5f73ffffffffffffffffffffffffffffffffffffffff82169050919050565b5f6101f8826101cf565b9050919050565b610208816101ee565b8114610212575f80fd5b50565b5f81359050610223816101ff565b92915050565b5f819050919050565b61023b81610229565b8114610245575f80fd5b50565b5f8135905061025681610232565b92915050565b5f805f8060808587031215610274576102736101cb565b5b5f61028187828801610215565b945050602061029287828801610248565b93505060406102a387828801610215565b92505060606102b487828801610248565b91505092959194509250565b5f82825260208201905092915050565b7f5072696365206d7573742062652067726561746572207468616e207a65726f005f82015250565b5f610304601f836102c0565b915061030f826102d0565b602082019050919050565b5f6020820190508181035f830152610331816102f8565b9050919050565b7f496e636f7272656374207061796d656e7420616d6f756e7400000000000000005f82015250565b5f61036c6018836102c0565b915061037782610338565b602082019050919050565b5f6020820190508181035f83015261039981610360565b9050919050565b6103a9816101ee565b82525050565b6103b881610229565b82525050565b5f6060820190506103d15f8301866103a0565b6103de60208301856103a0565b6103eb60408301846103af565b949350505050565b5f6040820190506104065f8301856103a0565b61041360208301846103af565b939250505056fea2646970667358221220a872e2855481e5f4927a8db9b2892908b4dc20980f50034ebba84764e846353f64736f6c63430008140033",
  "immutableReferences": {},
  "source": "// SPDX-License-Identifier: MIT\r\npragma solidity ^0.8.0;\r\n\r\nimport \"@openzeppelin/contracts/token/ERC721/IERC721.sol\";\r\n\r\ncontract NFTMarketplace {\r\n    event NFTSold(\r\n        address indexed nftContract,\r\n        uint256 indexed tokenId,\r\n        address buyer,\r\n        uint256 price\r\n    );\r\n\r\n    function buyNFT(\r\n        address nftContract,\r\n        uint256 tokenId,\r\n        address seller,\r\n        uint256 price\r\n    ) external payable {\r\n        require(price > 0, \"Price must be greater than zero\");\r\n        require(msg.value == price, \"Incorrect payment amount\");\r\n\r\n        IERC721 nft = IERC721(nftContract);\r\n\r\n        // NFT\r\n        nft.safeTransferFrom(seller, msg.sender, tokenId);\r\n\r\n        // \r\n        payable(seller).transfer(msg.value);\r\n\r\n        emit NFTSold(nftContract, tokenId, msg.sender, price);\r\n    }\r\n}\r\n",
  "sourcePath": "D:\\Code\\nft-market\\contracts\\market.sol",
  "compiler": {
    "name": "solc",
    "version": "0.8.20+commit.a1b79de6.Emscripten.clang"
  },
  "schemaVersion": "3.4.16",
  "updatedAt": "2024-08-27T08:27:14.881Z",
  "networkType": "ethereum",
  "devdoc": {
    "kind": "dev",
    "methods": {},
    "version": 1
  },
  "userdoc": {
    "kind": "user",
    "methods": {},
    "version": 1
  }
}