{
  "contractName": "NFTMarketplace",
  "abi": [
    {
      "inputs": [
        {
          "internalType": "address",
          "name": "initialOwner",
          "type": "address"
        }
      ],
      "stateMutability": "nonpayable",
      "type": "constructor"
    },
    {
      "inputs": [
        {
          "internalType": "address",
          "name": "owner",
          "type": "address"
        }
      ],
      "name": "OwnableInvalidOwner",
      "type": "error"
    },
    {
      "inputs": [
        {
          "internalType": "address",
          "name": "account",
          "type": "address"
        }
      ],
      "name": "OwnableUnauthorizedAccount",
      "type": "error"
    },
    {
      "anonymous": false,
      "inputs": [
        {
          "indexed": true,
          "internalType": "address",
          "name": "nftContract",
          "type": "address"
        },
        {
          "indexed": true,
          "internalType": "uint256",
          "name": "tokenId",
          "type": "uint256"
        },
        {
          "indexed": true,
          "internalType": "address",
          "name": "seller",
          "type": "address"
        },
        {
          "indexed": false,
          "internalType": "uint256",
          "name": "price",
          "type": "uint256"
        }
      ],
      "name": "NFTListed",
      "type": "event"
    },
    {
      "anonymous": false,
      "inputs": [
        {
          "indexed": true,
          "internalType": "address",
          "name": "nftContract",
          "type": "address"
        },
        {
          "indexed": true,
          "internalType": "uint256",
          "name": "tokenId",
          "type": "uint256"
        },
        {
          "indexed": true,
          "internalType": "address",
          "name": "seller",
          "type": "address"
        }
      ],
      "name": "NFTListingCanceled",
      "type": "event"
    },
    {
      "anonymous": false,
      "inputs": [
        {
          "indexed": true,
          "internalType": "address",
          "name": "nftContract",
          "type": "address"
        },
        {
          "indexed": true,
          "internalType": "uint256",
          "name": "tokenId",
          "type": "uint256"
        },
        {
          "indexed": true,
          "internalType": "address",
          "name": "buyer",
          "type": "address"
        },
        {
          "indexed": false,
          "internalType": "uint256",
          "name": "price",
          "type": "uint256"
        }
      ],
      "name": "NFTSold",
      "type": "event"
    },
    {
      "anonymous": false,
      "inputs": [
        {
          "indexed": true,
          "internalType": "address",
          "name": "previousOwner",
          "type": "address"
        },
        {
          "indexed": true,
          "internalType": "address",
          "name": "newOwner",
          "type": "address"
        }
      ],
      "name": "OwnershipTransferred",
      "type": "event"
    },
    {
      "inputs": [
        {
          "internalType": "address",
          "name": "",
          "type": "address"
        },
        {
          "internalType": "uint256",
          "name": "",
          "type": "uint256"
        }
      ],
      "name": "listings",
      "outputs": [
        {
          "internalType": "uint256",
          "name": "price",
          "type": "uint256"
        },
        {
          "internalType": "address",
          "name": "seller",
          "type": "address"
        }
      ],
      "stateMutability": "view",
      "type": "function",
      "constant": true
    },
    {
      "inputs": [],
      "name": "owner",
      "outputs": [
        {
          "internalType": "address",
          "name": "",
          "type": "address"
        }
      ],
      "stateMutability": "view",
      "type": "function",
      "constant": true
    },
    {
      "inputs": [],
      "name": "renounceOwnership",
      "outputs": [],
      "stateMutability": "nonpayable",
      "type": "function"
    },
    {
      "inputs": [
        {
          "internalType": "address",
          "name": "newOwner",
          "type": "address"
        }
      ],
      "name": "transferOwnership",
      "outputs": [],
      "stateMutability": "nonpayable",
      "type": "function"
    },
    {
      "inputs": [
        {
          "internalType": "address",
          "name": "nftContract",
          "type": "address"
        },
        {
          "internalType": "uint256",
          "name": "tokenId",
          "type": "uint256"
        },
        {
          "internalType": "uint256",
          "name": "price",
          "type": "uint256"
        }
      ],
      "name": "listNFT",
      "outputs": [],
      "stateMutability": "nonpayable",
      "type": "function"
    },
    {
      "inputs": [
        {
          "internalType": "address",
          "name": "nftContract",
          "type": "address"
        },
        {
          "internalType": "uint256",
          "name": "tokenId",
          "type": "uint256"
        }
      ],
      "name": "buyNFT",
      "outputs": [],
      "stateMutability": "payable",
      "type": "function",
      "payable": true
    },
    {
      "inputs": [
        {
          "internalType": "address",
          "name": "nftContract",
          "type": "address"
        },
        {
          "internalType": "uint256",
          "name": "tokenId",
          "type": "uint256"
        }
      ],
      "name": "cancelListing",
      "outputs": [],
      "stateMutability": "nonpayable",
      "type": "function"
    }
  ],
  "bytecode": "0x608060405234801562000010575f80fd5b506040516200138e3803806200138e8339818101604052810190620000369190620001e9565b805f73ffffffffffffffffffffffffffffffffffffffff168173ffffffffffffffffffffffffffffffffffffffff1603620000aa575f6040517f1e4fbdf7000000000000000000000000000000000000000000000000000000008152600401620000a191906200022a565b60405180910390fd5b620000bb81620000c360201b60201c565b505062000245565b5f805f9054906101000a900473ffffffffffffffffffffffffffffffffffffffff169050815f806101000a81548173ffffffffffffffffffffffffffffffffffffffff021916908373ffffffffffffffffffffffffffffffffffffffff1602179055508173ffffffffffffffffffffffffffffffffffffffff168173ffffffffffffffffffffffffffffffffffffffff167f8be0079c531659141344cd1fd0a4f28419497f9722a3daafe3b4186f6b6457e060405160405180910390a35050565b5f80fd5b5f73ffffffffffffffffffffffffffffffffffffffff82169050919050565b5f620001b38262000188565b9050919050565b620001c581620001a7565b8114620001d0575f80fd5b50565b5f81519050620001e381620001ba565b92915050565b5f6020828403121562000201576200020062000184565b5b5f6200021084828501620001d3565b91505092915050565b6200022481620001a7565b82525050565b5f6020820190506200023f5f83018462000219565b92915050565b61113b80620002535f395ff3fe60806040526004361061006e575f3560e01c8063a82ba76f1161004d578063a82ba76f146100ef578063ad05f1b41461010b578063b2ddee0614610133578063f2fde38b1461015b5761006e565b806207df3014610072578063715018a6146100af5780638da5cb5b146100c5575b5f80fd5b34801561007d575f80fd5b5061009860048036038101906100939190610c95565b610183565b6040516100a6929190610cf1565b60405180910390f35b3480156100ba575f80fd5b506100c36101cd565b005b3480156100d0575f80fd5b506100d96101e0565b6040516100e69190610d18565b60405180910390f35b61010960048036038101906101049190610c95565b610207565b005b348015610116575f80fd5b50610131600480360381019061012c9190610d31565b6104e8565b005b34801561013e575f80fd5b5061015960048036038101906101549190610c95565b61082c565b005b348015610166575f80fd5b50610181600480360381019061017c9190610d81565b610a31565b005b6001602052815f5260405f20602052805f5260405f205f9150915050805f015490806001015f9054906101000a900473ffffffffffffffffffffffffffffffffffffffff16905082565b6101d5610ab5565b6101de5f610b3c565b565b5f805f9054906101000a900473ffffffffffffffffffffffffffffffffffffffff16905090565b5f60015f8473ffffffffffffffffffffffffffffffffffffffff1673ffffffffffffffffffffffffffffffffffffffff1681526020019081526020015f205f8381526020019081526020015f206040518060400160405290815f8201548152602001600182015f9054906101000a900473ffffffffffffffffffffffffffffffffffffffff1673ffffffffffffffffffffffffffffffffffffffff1673ffffffffffffffffffffffffffffffffffffffff168152505090505f815f015111610304576040517f08c379a00000000000000000000000000000000000000000000000000000000081526004016102fb90610e06565b60405180910390fd5b805f01513414610349576040517f08c379a000000000000000000000000000000000000000000000000000000000815260040161034090610e6e565b60405180910390fd5b8273ffffffffffffffffffffffffffffffffffffffff166342842e0e826020015133856040518463ffffffff1660e01b815260040161038a93929190610e8c565b5f604051808303815f87803b1580156103a1575f80fd5b505af11580156103b3573d5f803e3d5ffd5b50505050806020015173ffffffffffffffffffffffffffffffffffffffff166108fc3490811502906040515f60405180830381858888f193505050501580156103fe573d5f803e3d5ffd5b5060015f8473ffffffffffffffffffffffffffffffffffffffff1673ffffffffffffffffffffffffffffffffffffffff1681526020019081526020015f205f8381526020019081526020015f205f8082015f9055600182015f6101000a81549073ffffffffffffffffffffffffffffffffffffffff021916905550503373ffffffffffffffffffffffffffffffffffffffff16828473ffffffffffffffffffffffffffffffffffffffff167f5f56b86d7e7069e97b2fb6f4bbfe88ee51f79e56760d02a0ba2114eb274600f6845f01516040516104db9190610ec1565b60405180910390a4505050565b5f811161052a576040517f08c379a000000000000000000000000000000000000000000000000000000000815260040161052190610f24565b60405180910390fd5b5f8390503373ffffffffffffffffffffffffffffffffffffffff168173ffffffffffffffffffffffffffffffffffffffff16636352211e856040518263ffffffff1660e01b815260040161057e9190610ec1565b602060405180830381865afa158015610599573d5f803e3d5ffd5b505050506040513d601f19601f820116820180604052508101906105bd9190610f56565b73ffffffffffffffffffffffffffffffffffffffff1614610613576040517f08c379a000000000000000000000000000000000000000000000000000000000815260040161060a90610fcb565b60405180910390fd5b3073ffffffffffffffffffffffffffffffffffffffff168173ffffffffffffffffffffffffffffffffffffffff1663081812fc856040518263ffffffff1660e01b81526004016106639190610ec1565b602060405180830381865afa15801561067e573d5f803e3d5ffd5b505050506040513d601f19601f820116820180604052508101906106a29190610f56565b73ffffffffffffffffffffffffffffffffffffffff16146106f8576040517f08c379a00000000000000000000000000000000000000000000000000000000081526004016106ef90611059565b60405180910390fd5b60405180604001604052808381526020013373ffffffffffffffffffffffffffffffffffffffff1681525060015f8673ffffffffffffffffffffffffffffffffffffffff1673ffffffffffffffffffffffffffffffffffffffff1681526020019081526020015f205f8581526020019081526020015f205f820151815f01556020820151816001015f6101000a81548173ffffffffffffffffffffffffffffffffffffffff021916908373ffffffffffffffffffffffffffffffffffffffff1602179055509050503373ffffffffffffffffffffffffffffffffffffffff16838573ffffffffffffffffffffffffffffffffffffffff167f392a0f172cb29479635d0b2219b2f96ef24f74dfdf328cb09f1496efe6cfddbe8560405161081e9190610ec1565b60405180910390a450505050565b5f60015f8473ffffffffffffffffffffffffffffffffffffffff1673ffffffffffffffffffffffffffffffffffffffff1681526020019081526020015f205f8381526020019081526020015f206040518060400160405290815f8201548152602001600182015f9054906101000a900473ffffffffffffffffffffffffffffffffffffffff1673ffffffffffffffffffffffffffffffffffffffff1673ffffffffffffffffffffffffffffffffffffffff168152505090503373ffffffffffffffffffffffffffffffffffffffff16816020015173ffffffffffffffffffffffffffffffffffffffff1614610956576040517f08c379a000000000000000000000000000000000000000000000000000000000815260040161094d906110e7565b60405180910390fd5b60015f8473ffffffffffffffffffffffffffffffffffffffff1673ffffffffffffffffffffffffffffffffffffffff1681526020019081526020015f205f8381526020019081526020015f205f8082015f9055600182015f6101000a81549073ffffffffffffffffffffffffffffffffffffffff021916905550503373ffffffffffffffffffffffffffffffffffffffff16828473ffffffffffffffffffffffffffffffffffffffff167f7c6e7704355c4fc71707078423c84076258d510bf2306a3ba2f8d8870a9bf0fd60405160405180910390a4505050565b610a39610ab5565b5f73ffffffffffffffffffffffffffffffffffffffff168173ffffffffffffffffffffffffffffffffffffffff1603610aa9575f6040517f1e4fbdf7000000000000000000000000000000000000000000000000000000008152600401610aa09190610d18565b60405180910390fd5b610ab281610b3c565b50565b610abd610bfd565b73ffffffffffffffffffffffffffffffffffffffff16610adb6101e0565b73ffffffffffffffffffffffffffffffffffffffff1614610b3a57610afe610bfd565b6040517f118cdaa7000000000000000000000000000000000000000000000000000000008152600401610b319190610d18565b60405180910390fd5b565b5f805f9054906101000a900473ffffffffffffffffffffffffffffffffffffffff169050815f806101000a81548173ffffffffffffffffffffffffffffffffffffffff021916908373ffffffffffffffffffffffffffffffffffffffff1602179055508173ffffffffffffffffffffffffffffffffffffffff168173ffffffffffffffffffffffffffffffffffffffff167f8be0079c531659141344cd1fd0a4f28419497f9722a3daafe3b4186f6b6457e060405160405180910390a35050565b5f33905090565b5f80fd5b5f73ffffffffffffffffffffffffffffffffffffffff82169050919050565b5f610c3182610c08565b9050919050565b610c4181610c27565b8114610c4b575f80fd5b50565b5f81359050610c5c81610c38565b92915050565b5f819050919050565b610c7481610c62565b8114610c7e575f80fd5b50565b5f81359050610c8f81610c6b565b92915050565b5f8060408385031215610cab57610caa610c04565b5b5f610cb885828601610c4e565b9250506020610cc985828601610c81565b9150509250929050565b610cdc81610c62565b82525050565b610ceb81610c27565b82525050565b5f604082019050610d045f830185610cd3565b610d116020830184610ce2565b9392505050565b5f602082019050610d2b5f830184610ce2565b92915050565b5f805f60608486031215610d4857610d47610c04565b5b5f610d5586828701610c4e565b9350506020610d6686828701610c81565b9250506040610d7786828701610c81565b9150509250925092565b5f60208284031215610d9657610d95610c04565b5b5f610da384828501610c4e565b91505092915050565b5f82825260208201905092915050565b7f4e4654206973206e6f7420666f722073616c65000000000000000000000000005f82015250565b5f610df0601383610dac565b9150610dfb82610dbc565b602082019050919050565b5f6020820190508181035f830152610e1d81610de4565b9050919050565b7f496e636f7272656374207061796d656e7420616d6f756e7400000000000000005f82015250565b5f610e58601883610dac565b9150610e6382610e24565b602082019050919050565b5f6020820190508181035f830152610e8581610e4c565b9050919050565b5f606082019050610e9f5f830186610ce2565b610eac6020830185610ce2565b610eb96040830184610cd3565b949350505050565b5f602082019050610ed45f830184610cd3565b92915050565b7f5072696365206d7573742062652067726561746572207468616e207a65726f005f82015250565b5f610f0e601f83610dac565b9150610f1982610eda565b602082019050919050565b5f6020820190508181035f830152610f3b81610f02565b9050919050565b5f81519050610f5081610c38565b92915050565b5f60208284031215610f6b57610f6a610c04565b5b5f610f7884828501610f42565b91505092915050565b7f4f6e6c7920746865206f776e65722063616e206c69737420746865204e4654005f82015250565b5f610fb5601f83610dac565b9150610fc082610f81565b602082019050919050565b5f6020820190508181035f830152610fe281610fa9565b9050919050565b7f4d61726b6574706c616365206d75737420626520617070726f76656420746f205f8201527f7472616e736665722074686973204e4654000000000000000000000000000000602082015250565b5f611043603183610dac565b915061104e82610fe9565b604082019050919050565b5f6020820190508181035f83015261107081611037565b9050919050565b7f4f6e6c79207468652073656c6c65722063616e2063616e63656c20746865206c5f8201527f697374696e670000000000000000000000000000000000000000000000000000602082015250565b5f6110d1602683610dac565b91506110dc82611077565b604082019050919050565b5f6020820190508181035f8301526110fe816110c5565b905091905056fea264697066735822122029d06af4b865ffb3376e993f7931ae11a845fddf1c4d40bd112f9cb843cc132a64736f6c63430008140033",
  "immutableReferences": {},
  "source": "// SPDX-License-Identifier: MIT\r\npragma solidity ^0.8.0;\r\n\r\nimport \"@openzeppelin/contracts/token/ERC721/IERC721.sol\";\r\nimport \"@openzeppelin/contracts/access/Ownable.sol\";\r\n\r\ncontract NFTMarketplace is Ownable {\r\n    struct Listing {\r\n        uint256 price;\r\n        address seller;\r\n    }\r\n    // NFT => Token ID => Listing\r\n    mapping(address => mapping(uint256 => Listing)) public listings;\r\n\r\n    event NFTListed(\r\n        address indexed nftContract,\r\n        uint256 indexed tokenId,\r\n        address indexed seller,\r\n        uint256 price\r\n    );\r\n    event NFTSold(\r\n        address indexed nftContract,\r\n        uint256 indexed tokenId,\r\n        address indexed buyer,\r\n        uint256 price\r\n    );\r\n    event NFTListingCanceled(\r\n        address indexed nftContract,\r\n        uint256 indexed tokenId,\r\n        address indexed seller\r\n    );\r\n    constructor(address initialOwner) Ownable(initialOwner) {\r\n        // \r\n    }\r\n    // NFT\r\n    function listNFT(\r\n        address nftContract,\r\n        uint256 tokenId,\r\n        uint256 price\r\n    ) external {\r\n        require(price > 0, \"Price must be greater than zero\");\r\n        IERC721 nft = IERC721(nftContract);\r\n        require(\r\n            nft.ownerOf(tokenId) == msg.sender,\r\n            \"Only the owner can list the NFT\"\r\n        );\r\n        require(\r\n            nft.getApproved(tokenId) == address(this),\r\n            \"Marketplace must be approved to transfer this NFT\"\r\n        );\r\n\r\n        listings[nftContract][tokenId] = Listing(price, msg.sender);\r\n\r\n        emit NFTListed(nftContract, tokenId, msg.sender, price);\r\n    }\r\n\r\n    // NFT\r\n    function buyNFT(address nftContract, uint256 tokenId) external payable {\r\n        Listing memory listing = listings[nftContract][tokenId];\r\n        require(listing.price > 0, \"NFT is not for sale\");\r\n        require(msg.value == listing.price, \"Incorrect payment amount\");\r\n\r\n        // NFT\r\n        IERC721(nftContract).safeTransferFrom(\r\n            listing.seller,\r\n            msg.sender,\r\n            tokenId\r\n        );\r\n\r\n        // \r\n        payable(listing.seller).transfer(msg.value);\r\n\r\n        // Listing\r\n        delete listings[nftContract][tokenId];\r\n\r\n        emit NFTSold(nftContract, tokenId, msg.sender, listing.price);\r\n    }\r\n\r\n    // NFT\r\n    function cancelListing(address nftContract, uint256 tokenId) external {\r\n        Listing memory listing = listings[nftContract][tokenId];\r\n        require(\r\n            listing.seller == msg.sender,\r\n            \"Only the seller can cancel the listing\"\r\n        );\r\n\r\n        delete listings[nftContract][tokenId];\r\n\r\n        emit NFTListingCanceled(nftContract, tokenId, msg.sender);\r\n    }\r\n}\r\n",
  "sourcePath": "D:\\Code\\nft-market\\contracts\\market.sol",
  "compiler": {
    "name": "solc",
    "version": "0.8.20+commit.a1b79de6.Emscripten.clang"
  },
  "schemaVersion": "3.4.16",
  "updatedAt": "2024-08-26T18:05:40.147Z",
  "networkType": "ethereum",
  "devdoc": {
    "errors": {
      "OwnableInvalidOwner(address)": [
        {
          "details": "The owner is not a valid owner account. (eg. `address(0)`)"
        }
      ],
      "OwnableUnauthorizedAccount(address)": [
        {
          "details": "The caller account is not authorized to perform an operation."
        }
      ]
    },
    "kind": "dev",
    "methods": {
      "owner()": {
        "details": "Returns the address of the current owner."
      },
      "renounceOwnership()": {
        "details": "Leaves the contract without owner. It will not be possible to call `onlyOwner` functions. Can only be called by the current owner. NOTE: Renouncing ownership will leave the contract without an owner, thereby disabling any functionality that is only available to the owner."
      },
      "transferOwnership(address)": {
        "details": "Transfers ownership of the contract to a new account (`newOwner`). Can only be called by the current owner."
      }
    },
    "version": 1
  },
  "userdoc": {
    "kind": "user",
    "methods": {},
    "version": 1
  }
}