{
  "contractName": "SimpleNFT",
  "abi": [
    {
      "inputs": [
        {
          "internalType": "string",
          "name": "name",
          "type": "string"
        },
        {
          "internalType": "string",
          "name": "symbol",
          "type": "string"
        }
      ],
      "stateMutability": "nonpayable",
      "type": "constructor"
    },
    {
      "inputs": [
        {
          "internalType": "address",
          "name": "sender",
          "type": "address"
        },
        {
          "internalType": "uint256",
          "name": "tokenId",
          "type": "uint256"
        },
        {
          "internalType": "address",
          "name": "owner",
          "type": "address"
        }
      ],
      "name": "ERC721IncorrectOwner",
      "type": "error"
    },
    {
      "inputs": [
        {
          "internalType": "address",
          "name": "operator",
          "type": "address"
        },
        {
          "internalType": "uint256",
          "name": "tokenId",
          "type": "uint256"
        }
      ],
      "name": "ERC721InsufficientApproval",
      "type": "error"
    },
    {
      "inputs": [
        {
          "internalType": "address",
          "name": "approver",
          "type": "address"
        }
      ],
      "name": "ERC721InvalidApprover",
      "type": "error"
    },
    {
      "inputs": [
        {
          "internalType": "address",
          "name": "operator",
          "type": "address"
        }
      ],
      "name": "ERC721InvalidOperator",
      "type": "error"
    },
    {
      "inputs": [
        {
          "internalType": "address",
          "name": "owner",
          "type": "address"
        }
      ],
      "name": "ERC721InvalidOwner",
      "type": "error"
    },
    {
      "inputs": [
        {
          "internalType": "address",
          "name": "receiver",
          "type": "address"
        }
      ],
      "name": "ERC721InvalidReceiver",
      "type": "error"
    },
    {
      "inputs": [
        {
          "internalType": "address",
          "name": "sender",
          "type": "address"
        }
      ],
      "name": "ERC721InvalidSender",
      "type": "error"
    },
    {
      "inputs": [
        {
          "internalType": "uint256",
          "name": "tokenId",
          "type": "uint256"
        }
      ],
      "name": "ERC721NonexistentToken",
      "type": "error"
    },
    {
      "inputs": [
        {
          "internalType": "address",
          "name": "owner",
          "type": "address"
        }
      ],
      "name": "OwnableInvalidOwner",
      "type": "error"
    },
    {
      "inputs": [
        {
          "internalType": "address",
          "name": "account",
          "type": "address"
        }
      ],
      "name": "OwnableUnauthorizedAccount",
      "type": "error"
    },
    {
      "anonymous": false,
      "inputs": [
        {
          "indexed": true,
          "internalType": "address",
          "name": "owner",
          "type": "address"
        },
        {
          "indexed": true,
          "internalType": "address",
          "name": "approved",
          "type": "address"
        },
        {
          "indexed": true,
          "internalType": "uint256",
          "name": "tokenId",
          "type": "uint256"
        }
      ],
      "name": "Approval",
      "type": "event"
    },
    {
      "anonymous": false,
      "inputs": [
        {
          "indexed": true,
          "internalType": "address",
          "name": "owner",
          "type": "address"
        },
        {
          "indexed": true,
          "internalType": "address",
          "name": "operator",
          "type": "address"
        },
        {
          "indexed": false,
          "internalType": "bool",
          "name": "approved",
          "type": "bool"
        }
      ],
      "name": "ApprovalForAll",
      "type": "event"
    },
    {
      "anonymous": false,
      "inputs": [
        {
          "indexed": false,
          "internalType": "uint256",
          "name": "_fromTokenId",
          "type": "uint256"
        },
        {
          "indexed": false,
          "internalType": "uint256",
          "name": "_toTokenId",
          "type": "uint256"
        }
      ],
      "name": "BatchMetadataUpdate",
      "type": "event"
    },
    {
      "anonymous": false,
      "inputs": [
        {
          "indexed": false,
          "internalType": "uint256",
          "name": "_tokenId",
          "type": "uint256"
        }
      ],
      "name": "MetadataUpdate",
      "type": "event"
    },
    {
      "anonymous": false,
      "inputs": [
        {
          "indexed": false,
          "internalType": "address",
          "name": "recipient",
          "type": "address"
        },
        {
          "indexed": false,
          "internalType": "uint256",
          "name": "tokenId",
          "type": "uint256"
        }
      ],
      "name": "NFTMinted",
      "type": "event"
    },
    {
      "anonymous": false,
      "inputs": [
        {
          "indexed": true,
          "internalType": "address",
          "name": "previousOwner",
          "type": "address"
        },
        {
          "indexed": true,
          "internalType": "address",
          "name": "newOwner",
          "type": "address"
        }
      ],
      "name": "OwnershipTransferred",
      "type": "event"
    },
    {
      "anonymous": false,
      "inputs": [
        {
          "indexed": true,
          "internalType": "address",
          "name": "from",
          "type": "address"
        },
        {
          "indexed": true,
          "internalType": "address",
          "name": "to",
          "type": "address"
        },
        {
          "indexed": true,
          "internalType": "uint256",
          "name": "tokenId",
          "type": "uint256"
        }
      ],
      "name": "Transfer",
      "type": "event"
    },
    {
      "inputs": [
        {
          "internalType": "address",
          "name": "to",
          "type": "address"
        },
        {
          "internalType": "uint256",
          "name": "tokenId",
          "type": "uint256"
        }
      ],
      "name": "approve",
      "outputs": [],
      "stateMutability": "nonpayable",
      "type": "function"
    },
    {
      "inputs": [
        {
          "internalType": "address",
          "name": "owner",
          "type": "address"
        }
      ],
      "name": "balanceOf",
      "outputs": [
        {
          "internalType": "uint256",
          "name": "",
          "type": "uint256"
        }
      ],
      "stateMutability": "view",
      "type": "function",
      "constant": true
    },
    {
      "inputs": [
        {
          "internalType": "uint256",
          "name": "tokenId",
          "type": "uint256"
        }
      ],
      "name": "getApproved",
      "outputs": [
        {
          "internalType": "address",
          "name": "",
          "type": "address"
        }
      ],
      "stateMutability": "view",
      "type": "function",
      "constant": true
    },
    {
      "inputs": [
        {
          "internalType": "address",
          "name": "owner",
          "type": "address"
        },
        {
          "internalType": "address",
          "name": "operator",
          "type": "address"
        }
      ],
      "name": "isApprovedForAll",
      "outputs": [
        {
          "internalType": "bool",
          "name": "",
          "type": "bool"
        }
      ],
      "stateMutability": "view",
      "type": "function",
      "constant": true
    },
    {
      "inputs": [],
      "name": "name",
      "outputs": [
        {
          "internalType": "string",
          "name": "",
          "type": "string"
        }
      ],
      "stateMutability": "view",
      "type": "function",
      "constant": true
    },
    {
      "inputs": [],
      "name": "owner",
      "outputs": [
        {
          "internalType": "address",
          "name": "",
          "type": "address"
        }
      ],
      "stateMutability": "view",
      "type": "function",
      "constant": true
    },
    {
      "inputs": [
        {
          "internalType": "uint256",
          "name": "tokenId",
          "type": "uint256"
        }
      ],
      "name": "ownerOf",
      "outputs": [
        {
          "internalType": "address",
          "name": "",
          "type": "address"
        }
      ],
      "stateMutability": "view",
      "type": "function",
      "constant": true
    },
    {
      "inputs": [],
      "name": "renounceOwnership",
      "outputs": [],
      "stateMutability": "nonpayable",
      "type": "function"
    },
    {
      "inputs": [
        {
          "internalType": "address",
          "name": "from",
          "type": "address"
        },
        {
          "internalType": "address",
          "name": "to",
          "type": "address"
        },
        {
          "internalType": "uint256",
          "name": "tokenId",
          "type": "uint256"
        }
      ],
      "name": "safeTransferFrom",
      "outputs": [],
      "stateMutability": "nonpayable",
      "type": "function"
    },
    {
      "inputs": [
        {
          "internalType": "address",
          "name": "from",
          "type": "address"
        },
        {
          "internalType": "address",
          "name": "to",
          "type": "address"
        },
        {
          "internalType": "uint256",
          "name": "tokenId",
          "type": "uint256"
        },
        {
          "internalType": "bytes",
          "name": "data",
          "type": "bytes"
        }
      ],
      "name": "safeTransferFrom",
      "outputs": [],
      "stateMutability": "nonpayable",
      "type": "function"
    },
    {
      "inputs": [
        {
          "internalType": "address",
          "name": "operator",
          "type": "address"
        },
        {
          "internalType": "bool",
          "name": "approved",
          "type": "bool"
        }
      ],
      "name": "setApprovalForAll",
      "outputs": [],
      "stateMutability": "nonpayable",
      "type": "function"
    },
    {
      "inputs": [
        {
          "internalType": "bytes4",
          "name": "interfaceId",
          "type": "bytes4"
        }
      ],
      "name": "supportsInterface",
      "outputs": [
        {
          "internalType": "bool",
          "name": "",
          "type": "bool"
        }
      ],
      "stateMutability": "view",
      "type": "function",
      "constant": true
    },
    {
      "inputs": [],
      "name": "symbol",
      "outputs": [
        {
          "internalType": "string",
          "name": "",
          "type": "string"
        }
      ],
      "stateMutability": "view",
      "type": "function",
      "constant": true
    },
    {
      "inputs": [
        {
          "internalType": "uint256",
          "name": "tokenId",
          "type": "uint256"
        }
      ],
      "name": "tokenURI",
      "outputs": [
        {
          "internalType": "string",
          "name": "",
          "type": "string"
        }
      ],
      "stateMutability": "view",
      "type": "function",
      "constant": true
    },
    {
      "inputs": [
        {
          "internalType": "address",
          "name": "from",
          "type": "address"
        },
        {
          "internalType": "address",
          "name": "to",
          "type": "address"
        },
        {
          "internalType": "uint256",
          "name": "tokenId",
          "type": "uint256"
        }
      ],
      "name": "transferFrom",
      "outputs": [],
      "stateMutability": "nonpayable",
      "type": "function"
    },
    {
      "inputs": [
        {
          "internalType": "address",
          "name": "newOwner",
          "type": "address"
        }
      ],
      "name": "transferOwnership",
      "outputs": [],
      "stateMutability": "nonpayable",
      "type": "function"
    },
    {
      "inputs": [
        {
          "internalType": "address",
          "name": "recipient",
          "type": "address"
        },
        {
          "internalType": "string",
          "name": "tokenURI",
          "type": "string"
        }
      ],
      "name": "mintNFT",
      "outputs": [],
      "stateMutability": "nonpayable",
      "type": "function"
    },
    {
      "inputs": [],
      "name": "getAllTokens",
      "outputs": [
        {
          "internalType": "uint256[]",
          "name": "",
          "type": "uint256[]"
        }
      ],
      "stateMutability": "view",
      "type": "function",
      "constant": true
    },
    {
      "inputs": [],
      "name": "totalSupply",
      "outputs": [
        {
          "internalType": "uint256",
          "name": "",
          "type": "uint256"
        }
      ],
      "stateMutability": "view",
      "type": "function",
      "constant": true
    }
  ],
  "bytecode": "0x608060405234801562000010575f80fd5b5060405162002e6d38038062002e6d83398181016040528101906200003691906200033a565b338282815f9081620000499190620005f4565b5080600190816200005b9190620005f4565b5050505f73ffffffffffffffffffffffffffffffffffffffff168173ffffffffffffffffffffffffffffffffffffffff1603620000d1575f6040517f1e4fbdf7000000000000000000000000000000000000000000000000000000008152600401620000c891906200071b565b60405180910390fd5b620000e281620000f260201b60201c565b505f600881905550505062000736565b5f60075f9054906101000a900473ffffffffffffffffffffffffffffffffffffffff1690508160075f6101000a81548173ffffffffffffffffffffffffffffffffffffffff021916908373ffffffffffffffffffffffffffffffffffffffff1602179055508173ffffffffffffffffffffffffffffffffffffffff168173ffffffffffffffffffffffffffffffffffffffff167f8be0079c531659141344cd1fd0a4f28419497f9722a3daafe3b4186f6b6457e060405160405180910390a35050565b5f604051905090565b5f80fd5b5f80fd5b5f80fd5b5f80fd5b5f601f19601f8301169050919050565b7f4e487b71000000000000000000000000000000000000000000000000000000005f52604160045260245ffd5b6200021682620001ce565b810181811067ffffffffffffffff82111715620002385762000237620001de565b5b80604052505050565b5f6200024c620001b5565b90506200025a82826200020b565b919050565b5f67ffffffffffffffff8211156200027c576200027b620001de565b5b6200028782620001ce565b9050602081019050919050565b5f5b83811015620002b357808201518184015260208101905062000296565b5f8484015250505050565b5f620002d4620002ce846200025f565b62000241565b905082815260208101848484011115620002f357620002f2620001ca565b5b6200030084828562000294565b509392505050565b5f82601f8301126200031f576200031e620001c6565b5b815162000331848260208601620002be565b91505092915050565b5f8060408385031215620003535762000352620001be565b5b5f83015167ffffffffffffffff811115620003735762000372620001c2565b5b620003818582860162000308565b925050602083015167ffffffffffffffff811115620003a557620003a4620001c2565b5b620003b38582860162000308565b9150509250929050565b5f81519050919050565b7f4e487b71000000000000000000000000000000000000000000000000000000005f52602260045260245ffd5b5f60028204905060018216806200040c57607f821691505b602082108103620004225762000421620003c7565b5b50919050565b5f819050815f5260205f209050919050565b5f6020601f8301049050919050565b5f82821b905092915050565b5f60088302620004867fffffffffffffffffffffffffffffffffffffffffffffffffffffffffffffffff8262000449565b62000492868362000449565b95508019841693508086168417925050509392505050565b5f819050919050565b5f819050919050565b5f620004dc620004d6620004d084620004aa565b620004b3565b620004aa565b9050919050565b5f819050919050565b620004f783620004bc565b6200050f6200050682620004e3565b84845462000455565b825550505050565b5f90565b6200052562000517565b62000532818484620004ec565b505050565b5b8181101562000559576200054d5f826200051b565b60018101905062000538565b5050565b601f821115620005a857620005728162000428565b6200057d846200043a565b810160208510156200058d578190505b620005a56200059c856200043a565b83018262000537565b50505b505050565b5f82821c905092915050565b5f620005ca5f1984600802620005ad565b1980831691505092915050565b5f620005e48383620005b9565b9150826002028217905092915050565b620005ff82620003bd565b67ffffffffffffffff8111156200061b576200061a620001de565b5b620006278254620003f4565b620006348282856200055d565b5f60209050601f8311600181146200066a575f841562000655578287015190505b620006618582620005d7565b865550620006d0565b601f1984166200067a8662000428565b5f5b82811015620006a3578489015182556001820191506020850194506020810190506200067c565b86831015620006c35784890151620006bf601f891682620005b9565b8355505b6001600288020188555050505b505050505050565b5f73ffffffffffffffffffffffffffffffffffffffff82169050919050565b5f6200070382620006d8565b9050919050565b6200071581620006f7565b82525050565b5f602082019050620007305f8301846200070a565b92915050565b61272980620007445f395ff3fe608060405234801561000f575f80fd5b506004361061011f575f3560e01c806370a08231116100ab578063b88d4fde1161006f578063b88d4fde146102f3578063c87b56dd1461030f578063e985e9c51461033f578063eacabe141461036f578063f2fde38b1461038b5761011f565b806370a0823114610261578063715018a6146102915780638da5cb5b1461029b57806395d89b41146102b9578063a22cb465146102d75761011f565b806318160ddd116100f257806318160ddd146101bd57806323b872dd146101db5780632a5c792a146101f757806342842e0e146102155780636352211e146102315761011f565b806301ffc9a71461012357806306fdde0314610153578063081812fc14610171578063095ea7b3146101a1575b5f80fd5b61013d60048036038101906101389190611b1f565b6103a7565b60405161014a9190611b64565b60405180910390f35b61015b610407565b6040516101689190611c07565b60405180910390f35b61018b60048036038101906101869190611c5a565b610496565b6040516101989190611cc4565b60405180910390f35b6101bb60048036038101906101b69190611d07565b6104b1565b005b6101c56104c7565b6040516101d29190611d54565b60405180910390f35b6101f560048036038101906101f09190611d6d565b6104d3565b005b6101ff6105d2565b60405161020c9190611e74565b60405180910390f35b61022f600480360381019061022a9190611d6d565b610628565b005b61024b60048036038101906102469190611c5a565b610647565b6040516102589190611cc4565b60405180910390f35b61027b60048036038101906102769190611e94565b610658565b6040516102889190611d54565b60405180910390f35b61029961070e565b005b6102a3610721565b6040516102b09190611cc4565b60405180910390f35b6102c1610749565b6040516102ce9190611c07565b60405180910390f35b6102f160048036038101906102ec9190611ee9565b6107d9565b005b61030d60048036038101906103089190612053565b6107ef565b005b61032960048036038101906103249190611c5a565b61080c565b6040516103369190611c07565b60405180910390f35b610359600480360381019061035491906120d3565b610917565b6040516103669190611b64565b60405180910390f35b610389600480360381019061038491906121af565b6109a5565b005b6103a560048036038101906103a09190611e94565b610a44565b005b5f634906490660e01b7bffffffffffffffffffffffffffffffffffffffffffffffffffffffff1916827bffffffffffffffffffffffffffffffffffffffffffffffffffffffff1916148061040057506103ff82610ac8565b5b9050919050565b60605f805461041590612236565b80601f016020809104026020016040519081016040528092919081815260200182805461044190612236565b801561048c5780601f106104635761010080835404028352916020019161048c565b820191905f5260205f20905b81548152906001019060200180831161046f57829003601f168201915b5050505050905090565b5f6104a082610ba9565b506104aa82610c2f565b9050919050565b6104c382826104be610c68565b610c6f565b5050565b5f600980549050905090565b5f73ffffffffffffffffffffffffffffffffffffffff168273ffffffffffffffffffffffffffffffffffffffff1603610543575f6040517f64a0ae9200000000000000000000000000000000000000000000000000000000815260040161053a9190611cc4565b60405180910390fd5b5f6105568383610551610c68565b610c81565b90508373ffffffffffffffffffffffffffffffffffffffff168173ffffffffffffffffffffffffffffffffffffffff16146105cc578382826040517f64283d7b0000000000000000000000000000000000000000000000000000000081526004016105c393929190612266565b60405180910390fd5b50505050565b6060600980548060200260200160405190810160405280929190818152602001828054801561061e57602002820191905f5260205f20905b81548152602001906001019080831161060a575b5050505050905090565b61064283838360405180602001604052805f8152506107ef565b505050565b5f61065182610ba9565b9050919050565b5f8073ffffffffffffffffffffffffffffffffffffffff168273ffffffffffffffffffffffffffffffffffffffff16036106c9575f6040517f89c62b640000000000000000000000000000000000000000000000000000000081526004016106c09190611cc4565b60405180910390fd5b60035f8373ffffffffffffffffffffffffffffffffffffffff1673ffffffffffffffffffffffffffffffffffffffff1681526020019081526020015f20549050919050565b610716610e8c565b61071f5f610f13565b565b5f60075f9054906101000a900473ffffffffffffffffffffffffffffffffffffffff16905090565b60606001805461075890612236565b80601f016020809104026020016040519081016040528092919081815260200182805461078490612236565b80156107cf5780601f106107a6576101008083540402835291602001916107cf565b820191905f5260205f20905b8154815290600101906020018083116107b257829003601f168201915b5050505050905090565b6107eb6107e4610c68565b8383610fd6565b5050565b6107fa8484846104d3565b6108068484848461113f565b50505050565b606061081782610ba9565b505f60065f8481526020019081526020015f20805461083590612236565b80601f016020809104026020016040519081016040528092919081815260200182805461086190612236565b80156108ac5780601f10610883576101008083540402835291602001916108ac565b820191905f5260205f20905b81548152906001019060200180831161088f57829003601f168201915b505050505090505f6108bc6112f1565b90505f8151036108d0578192505050610912565b5f825111156109045780826040516020016108ec9291906122d5565b60405160208183030381529060405292505050610912565b61090d84611307565b925050505b919050565b5f60055f8473ffffffffffffffffffffffffffffffffffffffff1673ffffffffffffffffffffffffffffffffffffffff1681526020019081526020015f205f8373ffffffffffffffffffffffffffffffffffffffff1673ffffffffffffffffffffffffffffffffffffffff1681526020019081526020015f205f9054906101000a900460ff16905092915050565b6109ad610e8c565b600160085f8282546109bf9190612325565b925050819055505f60085490506109d6838261136d565b6109e08183611460565b600981908060018154018082558091505060019003905f5260205f20015f90919091909150557f4cc0a9c4a99ddc700de1af2c9f916a7cbfdb71f14801ccff94061ad1ef8a80408382604051610a37929190612358565b60405180910390a1505050565b610a4c610e8c565b5f73ffffffffffffffffffffffffffffffffffffffff168173ffffffffffffffffffffffffffffffffffffffff1603610abc575f6040517f1e4fbdf7000000000000000000000000000000000000000000000000000000008152600401610ab39190611cc4565b60405180910390fd5b610ac581610f13565b50565b5f7f80ac58cd000000000000000000000000000000000000000000000000000000007bffffffffffffffffffffffffffffffffffffffffffffffffffffffff1916827bffffffffffffffffffffffffffffffffffffffffffffffffffffffff19161480610b9257507f5b5e139f000000000000000000000000000000000000000000000000000000007bffffffffffffffffffffffffffffffffffffffffffffffffffffffff1916827bffffffffffffffffffffffffffffffffffffffffffffffffffffffff1916145b80610ba25750610ba1826114ba565b5b9050919050565b5f80610bb483611523565b90505f73ffffffffffffffffffffffffffffffffffffffff168173ffffffffffffffffffffffffffffffffffffffff1603610c2657826040517f7e273289000000000000000000000000000000000000000000000000000000008152600401610c1d9190611d54565b60405180910390fd5b80915050919050565b5f60045f8381526020019081526020015f205f9054906101000a900473ffffffffffffffffffffffffffffffffffffffff169050919050565b5f33905090565b610c7c838383600161155c565b505050565b5f80610c8c84611523565b90505f73ffffffffffffffffffffffffffffffffffffffff168373ffffffffffffffffffffffffffffffffffffffff1614610ccd57610ccc81848661171b565b5b5f73ffffffffffffffffffffffffffffffffffffffff168173ffffffffffffffffffffffffffffffffffffffff1614610d5857610d0c5f855f8061155c565b600160035f8373ffffffffffffffffffffffffffffffffffffffff1673ffffffffffffffffffffffffffffffffffffffff1681526020019081526020015f205f82825403925050819055505b5f73ffffffffffffffffffffffffffffffffffffffff168573ffffffffffffffffffffffffffffffffffffffff1614610dd757600160035f8773ffffffffffffffffffffffffffffffffffffffff1673ffffffffffffffffffffffffffffffffffffffff1681526020019081526020015f205f82825401925050819055505b8460025f8681526020019081526020015f205f6101000a81548173ffffffffffffffffffffffffffffffffffffffff021916908373ffffffffffffffffffffffffffffffffffffffff160217905550838573ffffffffffffffffffffffffffffffffffffffff168273ffffffffffffffffffffffffffffffffffffffff167fddf252ad1be2c89b69c2b068fc378daa952ba7f163c4a11628f55a4df523b3ef60405160405180910390a4809150509392505050565b610e94610c68565b73ffffffffffffffffffffffffffffffffffffffff16610eb2610721565b73ffffffffffffffffffffffffffffffffffffffff1614610f1157610ed5610c68565b6040517f118cdaa7000000000000000000000000000000000000000000000000000000008152600401610f089190611cc4565b60405180910390fd5b565b5f60075f9054906101000a900473ffffffffffffffffffffffffffffffffffffffff1690508160075f6101000a81548173ffffffffffffffffffffffffffffffffffffffff021916908373ffffffffffffffffffffffffffffffffffffffff1602179055508173ffffffffffffffffffffffffffffffffffffffff168173ffffffffffffffffffffffffffffffffffffffff167f8be0079c531659141344cd1fd0a4f28419497f9722a3daafe3b4186f6b6457e060405160405180910390a35050565b5f73ffffffffffffffffffffffffffffffffffffffff168273ffffffffffffffffffffffffffffffffffffffff160361104657816040517f5b08ba1800000000000000000000000000000000000000000000000000000000815260040161103d9190611cc4565b60405180910390fd5b8060055f8573ffffffffffffffffffffffffffffffffffffffff1673ffffffffffffffffffffffffffffffffffffffff1681526020019081526020015f205f8473ffffffffffffffffffffffffffffffffffffffff1673ffffffffffffffffffffffffffffffffffffffff1681526020019081526020015f205f6101000a81548160ff0219169083151502179055508173ffffffffffffffffffffffffffffffffffffffff168373ffffffffffffffffffffffffffffffffffffffff167f17307eab39ab6107e8899845ad3d59bd9653f200f220920489ca2b5937696c31836040516111329190611b64565b60405180910390a3505050565b5f8373ffffffffffffffffffffffffffffffffffffffff163b11156112eb578273ffffffffffffffffffffffffffffffffffffffff1663150b7a02611182610c68565b8685856040518563ffffffff1660e01b81526004016111a494939291906123d1565b6020604051808303815f875af19250505080156111df57506040513d601f19601f820116820180604052508101906111dc919061242f565b60015b611260573d805f811461120d576040519150601f19603f3d011682016040523d82523d5f602084013e611212565b606091505b505f81510361125857836040517f64a0ae9200000000000000000000000000000000000000000000000000000000815260040161124f9190611cc4565b60405180910390fd5b805181602001fd5b63150b7a0260e01b7bffffffffffffffffffffffffffffffffffffffffffffffffffffffff1916817bffffffffffffffffffffffffffffffffffffffffffffffffffffffff1916146112e957836040517f64a0ae920000000000000000000000000000000000000000000000000000000081526004016112e09190611cc4565b60405180910390fd5b505b50505050565b606060405180602001604052805f815250905090565b606061131282610ba9565b505f61131c6112f1565b90505f81511161133a5760405180602001604052805f815250611365565b80611344846117de565b6040516020016113559291906122d5565b6040516020818303038152906040525b915050919050565b5f73ffffffffffffffffffffffffffffffffffffffff168273ffffffffffffffffffffffffffffffffffffffff16036113dd575f6040517f64a0ae920000000000000000000000000000000000000000000000000000000081526004016113d49190611cc4565b60405180910390fd5b5f6113e983835f610c81565b90505f73ffffffffffffffffffffffffffffffffffffffff168173ffffffffffffffffffffffffffffffffffffffff161461145b575f6040517f73c6ac6e0000000000000000000000000000000000000000000000000000000081526004016114529190611cc4565b60405180910390fd5b505050565b8060065f8481526020019081526020015f20908161147e91906125f7565b507ff8e1a15aba9398e019f0b49df1a4fde98ee17ae345cb5f6b5e2c27f5033e8ce7826040516114ae9190611d54565b60405180910390a15050565b5f7f01ffc9a7000000000000000000000000000000000000000000000000000000007bffffffffffffffffffffffffffffffffffffffffffffffffffffffff1916827bffffffffffffffffffffffffffffffffffffffffffffffffffffffff1916149050919050565b5f60025f8381526020019081526020015f205f9054906101000a900473ffffffffffffffffffffffffffffffffffffffff169050919050565b808061159457505f73ffffffffffffffffffffffffffffffffffffffff168273ffffffffffffffffffffffffffffffffffffffff1614155b156116c6575f6115a384610ba9565b90505f73ffffffffffffffffffffffffffffffffffffffff168373ffffffffffffffffffffffffffffffffffffffff161415801561160d57508273ffffffffffffffffffffffffffffffffffffffff168173ffffffffffffffffffffffffffffffffffffffff1614155b8015611620575061161e8184610917565b155b1561166257826040517fa9fbf51f0000000000000000000000000000000000000000000000000000000081526004016116599190611cc4565b60405180910390fd5b81156116c457838573ffffffffffffffffffffffffffffffffffffffff168273ffffffffffffffffffffffffffffffffffffffff167f8c5be1e5ebec7d5bd14f71427d1e84f3dd0314c0f7b2291e5b200ac8c7c3b92560405160405180910390a45b505b8360045f8581526020019081526020015f205f6101000a81548173ffffffffffffffffffffffffffffffffffffffff021916908373ffffffffffffffffffffffffffffffffffffffff16021790555050505050565b6117268383836118a8565b6117d9575f73ffffffffffffffffffffffffffffffffffffffff168373ffffffffffffffffffffffffffffffffffffffff160361179a57806040517f7e2732890000000000000000000000000000000000000000000000000000000081526004016117919190611d54565b60405180910390fd5b81816040517f177e802f0000000000000000000000000000000000000000000000000000000081526004016117d0929190612358565b60405180910390fd5b505050565b60605f60016117ec84611968565b0190505f8167ffffffffffffffff81111561180a57611809611f2f565b5b6040519080825280601f01601f19166020018201604052801561183c5781602001600182028036833780820191505090505b5090505f82602001820190505b60011561189d578080600190039150507f3031323334353637383961626364656600000000000000000000000000000000600a86061a8153600a8581611892576118916126c6565b5b0494505f8503611849575b819350505050919050565b5f8073ffffffffffffffffffffffffffffffffffffffff168373ffffffffffffffffffffffffffffffffffffffff161415801561195f57508273ffffffffffffffffffffffffffffffffffffffff168473ffffffffffffffffffffffffffffffffffffffff161480611920575061191f8484610917565b5b8061195e57508273ffffffffffffffffffffffffffffffffffffffff1661194683610c2f565b73ffffffffffffffffffffffffffffffffffffffff16145b5b90509392505050565b5f805f90507a184f03e93ff9f4daa797ed6e38ed64bf6a1f01000000000000000083106119c4577a184f03e93ff9f4daa797ed6e38ed64bf6a1f01000000000000000083816119ba576119b96126c6565b5b0492506040810190505b6d04ee2d6d415b85acef81000000008310611a01576d04ee2d6d415b85acef810000000083816119f7576119f66126c6565b5b0492506020810190505b662386f26fc100008310611a3057662386f26fc100008381611a2657611a256126c6565b5b0492506010810190505b6305f5e1008310611a59576305f5e1008381611a4f57611a4e6126c6565b5b0492506008810190505b6127108310611a7e576127108381611a7457611a736126c6565b5b0492506004810190505b60648310611aa15760648381611a9757611a966126c6565b5b0492506002810190505b600a8310611ab0576001810190505b80915050919050565b5f604051905090565b5f80fd5b5f80fd5b5f7fffffffff0000000000000000000000000000000000000000000000000000000082169050919050565b611afe81611aca565b8114611b08575f80fd5b50565b5f81359050611b1981611af5565b92915050565b5f60208284031215611b3457611b33611ac2565b5b5f611b4184828501611b0b565b91505092915050565b5f8115159050919050565b611b5e81611b4a565b82525050565b5f602082019050611b775f830184611b55565b92915050565b5f81519050919050565b5f82825260208201905092915050565b5f5b83811015611bb4578082015181840152602081019050611b99565b5f8484015250505050565b5f601f19601f8301169050919050565b5f611bd982611b7d565b611be38185611b87565b9350611bf3818560208601611b97565b611bfc81611bbf565b840191505092915050565b5f6020820190508181035f830152611c1f8184611bcf565b905092915050565b5f819050919050565b611c3981611c27565b8114611c43575f80fd5b50565b5f81359050611c5481611c30565b92915050565b5f60208284031215611c6f57611c6e611ac2565b5b5f611c7c84828501611c46565b91505092915050565b5f73ffffffffffffffffffffffffffffffffffffffff82169050919050565b5f611cae82611c85565b9050919050565b611cbe81611ca4565b82525050565b5f602082019050611cd75f830184611cb5565b92915050565b611ce681611ca4565b8114611cf0575f80fd5b50565b5f81359050611d0181611cdd565b92915050565b5f8060408385031215611d1d57611d1c611ac2565b5b5f611d2a85828601611cf3565b9250506020611d3b85828601611c46565b9150509250929050565b611d4e81611c27565b82525050565b5f602082019050611d675f830184611d45565b92915050565b5f805f60608486031215611d8457611d83611ac2565b5b5f611d9186828701611cf3565b9350506020611da286828701611cf3565b9250506040611db386828701611c46565b9150509250925092565b5f81519050919050565b5f82825260208201905092915050565b5f819050602082019050919050565b611def81611c27565b82525050565b5f611e008383611de6565b60208301905092915050565b5f602082019050919050565b5f611e2282611dbd565b611e2c8185611dc7565b9350611e3783611dd7565b805f5b83811015611e67578151611e4e8882611df5565b9750611e5983611e0c565b925050600181019050611e3a565b5085935050505092915050565b5f6020820190508181035f830152611e8c8184611e18565b905092915050565b5f60208284031215611ea957611ea8611ac2565b5b5f611eb684828501611cf3565b91505092915050565b611ec881611b4a565b8114611ed2575f80fd5b50565b5f81359050611ee381611ebf565b92915050565b5f8060408385031215611eff57611efe611ac2565b5b5f611f0c85828601611cf3565b9250506020611f1d85828601611ed5565b9150509250929050565b5f80fd5b5f80fd5b7f4e487b71000000000000000000000000000000000000000000000000000000005f52604160045260245ffd5b611f6582611bbf565b810181811067ffffffffffffffff82111715611f8457611f83611f2f565b5b80604052505050565b5f611f96611ab9565b9050611fa28282611f5c565b919050565b5f67ffffffffffffffff821115611fc157611fc0611f2f565b5b611fca82611bbf565b9050602081019050919050565b828183375f83830152505050565b5f611ff7611ff284611fa7565b611f8d565b90508281526020810184848401111561201357612012611f2b565b5b61201e848285611fd7565b509392505050565b5f82601f83011261203a57612039611f27565b5b813561204a848260208601611fe5565b91505092915050565b5f805f806080858703121561206b5761206a611ac2565b5b5f61207887828801611cf3565b945050602061208987828801611cf3565b935050604061209a87828801611c46565b925050606085013567ffffffffffffffff8111156120bb576120ba611ac6565b5b6120c787828801612026565b91505092959194509250565b5f80604083850312156120e9576120e8611ac2565b5b5f6120f685828601611cf3565b925050602061210785828601611cf3565b9150509250929050565b5f67ffffffffffffffff82111561212b5761212a611f2f565b5b61213482611bbf565b9050602081019050919050565b5f61215361214e84612111565b611f8d565b90508281526020810184848401111561216f5761216e611f2b565b5b61217a848285611fd7565b509392505050565b5f82601f83011261219657612195611f27565b5b81356121a6848260208601612141565b91505092915050565b5f80604083850312156121c5576121c4611ac2565b5b5f6121d285828601611cf3565b925050602083013567ffffffffffffffff8111156121f3576121f2611ac6565b5b6121ff85828601612182565b9150509250929050565b7f4e487b71000000000000000000000000000000000000000000000000000000005f52602260045260245ffd5b5f600282049050600182168061224d57607f821691505b6020821081036122605761225f612209565b5b50919050565b5f6060820190506122795f830186611cb5565b6122866020830185611d45565b6122936040830184611cb5565b949350505050565b5f81905092915050565b5f6122af82611b7d565b6122b9818561229b565b93506122c9818560208601611b97565b80840191505092915050565b5f6122e082856122a5565b91506122ec82846122a5565b91508190509392505050565b7f4e487b71000000000000000000000000000000000000000000000000000000005f52601160045260245ffd5b5f61232f82611c27565b915061233a83611c27565b9250828201905080821115612352576123516122f8565b5b92915050565b5f60408201905061236b5f830185611cb5565b6123786020830184611d45565b9392505050565b5f81519050919050565b5f82825260208201905092915050565b5f6123a38261237f565b6123ad8185612389565b93506123bd818560208601611b97565b6123c681611bbf565b840191505092915050565b5f6080820190506123e45f830187611cb5565b6123f16020830186611cb5565b6123fe6040830185611d45565b81810360608301526124108184612399565b905095945050505050565b5f8151905061242981611af5565b92915050565b5f6020828403121561244457612443611ac2565b5b5f6124518482850161241b565b91505092915050565b5f819050815f5260205f209050919050565b5f6020601f8301049050919050565b5f82821b905092915050565b5f600883026124b67fffffffffffffffffffffffffffffffffffffffffffffffffffffffffffffffff8261247b565b6124c0868361247b565b95508019841693508086168417925050509392505050565b5f819050919050565b5f6124fb6124f66124f184611c27565b6124d8565b611c27565b9050919050565b5f819050919050565b612514836124e1565b61252861252082612502565b848454612487565b825550505050565b5f90565b61253c612530565b61254781848461250b565b505050565b5b8181101561256a5761255f5f82612534565b60018101905061254d565b5050565b601f8211156125af576125808161245a565b6125898461246c565b81016020851015612598578190505b6125ac6125a48561246c565b83018261254c565b50505b505050565b5f82821c905092915050565b5f6125cf5f19846008026125b4565b1980831691505092915050565b5f6125e783836125c0565b9150826002028217905092915050565b61260082611b7d565b67ffffffffffffffff81111561261957612618611f2f565b5b6126238254612236565b61262e82828561256e565b5f60209050601f83116001811461265f575f841561264d578287015190505b61265785826125dc565b8655506126be565b601f19841661266d8661245a565b5f5b828110156126945784890151825560018201915060208501945060208101905061266f565b868310156126b157848901516126ad601f8916826125c0565b8355505b6001600288020188555050505b505050505050565b7f4e487b71000000000000000000000000000000000000000000000000000000005f52601260045260245ffdfea264697066735822122034138bcffb4667d0c114cbdff30f62b6b85a39d58e00d111a273b20d2d01e22664736f6c63430008140033",
  "immutableReferences": {},
  "source": "// SPDX-License-Identifier: MIT\r\npragma solidity ^0.8.0;\r\n\r\nimport \"@openzeppelin/contracts/token/ERC721/extensions/ERC721URIStorage.sol\";\r\nimport \"@openzeppelin/contracts/access/Ownable.sol\";\r\n\r\n/**\r\n * @title SimpleNFT\r\n * @dev This contract implements a basic NFT using ERC721 standard with URI storage and ownership control.\r\n */\r\ncontract SimpleNFT is ERC721URIStorage, Ownable {\r\n    event NFTMinted(address recipient, uint256 tokenId);\r\n    uint256 private _tokenIdCounter;\r\n    uint256[] private _allTokens; //  tokenId\r\n\r\n    /**\r\n     * @dev Constructor that sets the token name, symbol, and initializes the owner.\r\n     * @param name The name of the NFT token.\r\n     * @param symbol The symbol of the NFT token.\r\n     */\r\n    constructor(\r\n        string memory name,\r\n        string memory symbol\r\n    ) ERC721(name, symbol) Ownable(msg.sender) {\r\n        _tokenIdCounter = 0;\r\n    }\r\n\r\n    /**\r\n     * @notice Mint a new NFT with a specified URI.\r\n     * @param recipient The address that will receive the minted NFT.\r\n     * @param tokenURI The URI pointing to the NFT metadata.\r\n     */\r\n    function mintNFT(\r\n        address recipient,\r\n        string memory tokenURI\r\n    ) external onlyOwner {\r\n        _tokenIdCounter += 1;\r\n        uint256 newTokenId = _tokenIdCounter;\r\n\r\n        _mint(recipient, newTokenId);\r\n        _setTokenURI(newTokenId, tokenURI);\r\n        _allTokens.push(newTokenId);\r\n        emit NFTMinted(recipient, newTokenId); // \r\n    }\r\n    function getAllTokens() external view returns (uint256[] memory) {\r\n        return _allTokens;\r\n    }\r\n    // \r\n    function totalSupply() external view returns (uint256) {\r\n        return _allTokens.length;\r\n    }\r\n}\r\n",
  "sourcePath": "D:\\Code\\nft-market\\contracts\\nfts.sol",
  "compiler": {
    "name": "solc",
    "version": "0.8.20+commit.a1b79de6.Emscripten.clang"
  },
  "schemaVersion": "3.4.16",
  "updatedAt": "2024-08-26T20:56:05.926Z",
  "networkType": "ethereum",
  "devdoc": {
    "details": "This contract implements a basic NFT using ERC721 standard with URI storage and ownership control.",
    "errors": {
      "ERC721IncorrectOwner(address,uint256,address)": [
        {
          "details": "Indicates an error related to the ownership over a particular token. Used in transfers.",
          "params": {
            "owner": "Address of the current owner of a token.",
            "sender": "Address whose tokens are being transferred.",
            "tokenId": "Identifier number of a token."
          }
        }
      ],
      "ERC721InsufficientApproval(address,uint256)": [
        {
          "details": "Indicates a failure with the `operator`s approval. Used in transfers.",
          "params": {
            "operator": "Address that may be allowed to operate on tokens without being their owner.",
            "tokenId": "Identifier number of a token."
          }
        }
      ],
      "ERC721InvalidApprover(address)": [
        {
          "details": "Indicates a failure with the `approver` of a token to be approved. Used in approvals.",
          "params": {
            "approver": "Address initiating an approval operation."
          }
        }
      ],
      "ERC721InvalidOperator(address)": [
        {
          "details": "Indicates a failure with the `operator` to be approved. Used in approvals.",
          "params": {
            "operator": "Address that may be allowed to operate on tokens without being their owner."
          }
        }
      ],
      "ERC721InvalidOwner(address)": [
        {
          "details": "Indicates that an address can't be an owner. For example, `address(0)` is a forbidden owner in EIP-20. Used in balance queries.",
          "params": {
            "owner": "Address of the current owner of a token."
          }
        }
      ],
      "ERC721InvalidReceiver(address)": [
        {
          "details": "Indicates a failure with the token `receiver`. Used in transfers.",
          "params": {
            "receiver": "Address to which tokens are being transferred."
          }
        }
      ],
      "ERC721InvalidSender(address)": [
        {
          "details": "Indicates a failure with the token `sender`. Used in transfers.",
          "params": {
            "sender": "Address whose tokens are being transferred."
          }
        }
      ],
      "ERC721NonexistentToken(uint256)": [
        {
          "details": "Indicates a `tokenId` whose `owner` is the zero address.",
          "params": {
            "tokenId": "Identifier number of a token."
          }
        }
      ],
      "OwnableInvalidOwner(address)": [
        {
          "details": "The owner is not a valid owner account. (eg. `address(0)`)"
        }
      ],
      "OwnableUnauthorizedAccount(address)": [
        {
          "details": "The caller account is not authorized to perform an operation."
        }
      ]
    },
    "events": {
      "Approval(address,address,uint256)": {
        "details": "Emitted when `owner` enables `approved` to manage the `tokenId` token."
      },
      "ApprovalForAll(address,address,bool)": {
        "details": "Emitted when `owner` enables or disables (`approved`) `operator` to manage all of its assets."
      },
      "BatchMetadataUpdate(uint256,uint256)": {
        "details": "This event emits when the metadata of a range of tokens is changed. So that the third-party platforms such as NFT market could timely update the images and related attributes of the NFTs."
      },
      "MetadataUpdate(uint256)": {
        "details": "This event emits when the metadata of a token is changed. So that the third-party platforms such as NFT market could timely update the images and related attributes of the NFT."
      },
      "Transfer(address,address,uint256)": {
        "details": "Emitted when `tokenId` token is transferred from `from` to `to`."
      }
    },
    "kind": "dev",
    "methods": {
      "approve(address,uint256)": {
        "details": "See {IERC721-approve}."
      },
      "balanceOf(address)": {
        "details": "See {IERC721-balanceOf}."
      },
      "constructor": {
        "details": "Constructor that sets the token name, symbol, and initializes the owner.",
        "params": {
          "name": "The name of the NFT token.",
          "symbol": "The symbol of the NFT token."
        }
      },
      "getApproved(uint256)": {
        "details": "See {IERC721-getApproved}."
      },
      "isApprovedForAll(address,address)": {
        "details": "See {IERC721-isApprovedForAll}."
      },
      "mintNFT(address,string)": {
        "params": {
          "recipient": "The address that will receive the minted NFT.",
          "tokenURI": "The URI pointing to the NFT metadata."
        }
      },
      "name()": {
        "details": "See {IERC721Metadata-name}."
      },
      "owner()": {
        "details": "Returns the address of the current owner."
      },
      "ownerOf(uint256)": {
        "details": "See {IERC721-ownerOf}."
      },
      "renounceOwnership()": {
        "details": "Leaves the contract without owner. It will not be possible to call `onlyOwner` functions. Can only be called by the current owner. NOTE: Renouncing ownership will leave the contract without an owner, thereby disabling any functionality that is only available to the owner."
      },
      "safeTransferFrom(address,address,uint256)": {
        "details": "See {IERC721-safeTransferFrom}."
      },
      "safeTransferFrom(address,address,uint256,bytes)": {
        "details": "See {IERC721-safeTransferFrom}."
      },
      "setApprovalForAll(address,bool)": {
        "details": "See {IERC721-setApprovalForAll}."
      },
      "supportsInterface(bytes4)": {
        "details": "See {IERC165-supportsInterface}"
      },
      "symbol()": {
        "details": "See {IERC721Metadata-symbol}."
      },
      "tokenURI(uint256)": {
        "details": "See {IERC721Metadata-tokenURI}."
      },
      "transferFrom(address,address,uint256)": {
        "details": "See {IERC721-transferFrom}."
      },
      "transferOwnership(address)": {
        "details": "Transfers ownership of the contract to a new account (`newOwner`). Can only be called by the current owner."
      }
    },
    "title": "SimpleNFT",
    "version": 1
  },
  "userdoc": {
    "kind": "user",
    "methods": {
      "mintNFT(address,string)": {
        "notice": "Mint a new NFT with a specified URI."
      }
    },
    "version": 1
  }
}